{
  "_format": "hh-sol-artifact-1",
  "contractName": "PredictionMarket",
  "sourceName": "contracts/PredictionMarket.sol",
  "abi": [
    {
      "anonymous": false,
      "inputs": [
        {
          "indexed": true,
          "internalType": "uint256",
          "name": "marketId",
          "type": "uint256"
        },
        {
          "indexed": true,
          "internalType": "address",
          "name": "bettor",
          "type": "address"
        },
        {
          "indexed": false,
          "internalType": "uint256",
          "name": "amount",
          "type": "uint256"
        }
      ],
      "name": "BetPlaced",
      "type": "event"
    },
    {
      "anonymous": false,
      "inputs": [
        {
          "indexed": true,
          "internalType": "uint256",
          "name": "marketId",
          "type": "uint256"
        },
        {
          "indexed": false,
          "internalType": "string",
          "name": "question",
          "type": "string"
        },
        {
          "indexed": false,
          "internalType": "uint256",
          "name": "endTime",
          "type": "uint256"
        },
        {
          "indexed": false,
          "internalType": "address",
          "name": "creator",
          "type": "address"
        }
      ],
      "name": "MarketCreated",
      "type": "event"
    },
    {
      "anonymous": false,
      "inputs": [
        {
          "indexed": true,
          "internalType": "uint256",
          "name": "marketId",
          "type": "uint256"
        },
        {
          "indexed": false,
          "internalType": "bool",
          "name": "outcome",
          "type": "bool"
        }
      ],
      "name": "MarketResolved",
      "type": "event"
    },
    {
      "anonymous": false,
      "inputs": [
        {
          "indexed": true,
          "internalType": "uint256",
          "name": "marketId",
          "type": "uint256"
        },
        {
          "indexed": true,
          "internalType": "address",
          "name": "winner",
          "type": "address"
        },
        {
          "indexed": false,
          "internalType": "uint256",
          "name": "amount",
          "type": "uint256"
        }
      ],
      "name": "WinningsClaimed",
      "type": "event"
    },
    {
      "inputs": [],
      "name": "MAX_BET",
      "outputs": [
        {
          "internalType": "uint256",
          "name": "",
          "type": "uint256"
        }
      ],
      "stateMutability": "view",
      "type": "function"
    },
    {
      "inputs": [],
      "name": "MIN_BET",
      "outputs": [
        {
          "internalType": "uint256",
          "name": "",
          "type": "uint256"
        }
      ],
      "stateMutability": "view",
      "type": "function"
    },
    {
      "inputs": [
        {
          "internalType": "uint256",
          "name": "",
          "type": "uint256"
        },
        {
          "internalType": "address",
          "name": "",
          "type": "address"
        }
      ],
      "name": "bets",
      "outputs": [
        {
          "internalType": "euint32",
          "name": "encryptedAmount",
          "type": "bytes32"
        },
        {
          "internalType": "ebool",
          "name": "encryptedPrediction",
          "type": "bytes32"
        },
        {
          "internalType": "bool",
          "name": "claimed",
          "type": "bool"
        },
        {
          "internalType": "address",
          "name": "bettor",
          "type": "address"
        }
      ],
      "stateMutability": "view",
      "type": "function"
    },
    {
      "inputs": [
        {
          "internalType": "uint256",
          "name": "_marketId",
          "type": "uint256"
        }
      ],
      "name": "claimWinnings",
      "outputs": [],
      "stateMutability": "nonpayable",
      "type": "function"
    },
    {
      "inputs": [
        {
          "internalType": "string",
          "name": "_question",
          "type": "string"
        },
        {
          "internalType": "uint256",
          "name": "_duration",
          "type": "uint256"
        }
      ],
      "name": "createMarket",
      "outputs": [
        {
          "internalType": "uint256",
          "name": "",
          "type": "uint256"
        }
      ],
      "stateMutability": "nonpayable",
      "type": "function"
    },
    {
      "inputs": [
        {
          "internalType": "uint256",
          "name": "_marketId",
          "type": "uint256"
        }
      ],
      "name": "emergencyWithdraw",
      "outputs": [],
      "stateMutability": "nonpayable",
      "type": "function"
    },
    {
      "inputs": [
        {
          "internalType": "uint256",
          "name": "_marketId",
          "type": "uint256"
        }
      ],
      "name": "getBetExists",
      "outputs": [
        {
          "internalType": "bool",
          "name": "exists",
          "type": "bool"
        },
        {
          "internalType": "bool",
          "name": "claimed",
          "type": "bool"
        }
      ],
      "stateMutability": "view",
      "type": "function"
    },
    {
      "inputs": [
        {
          "internalType": "uint256",
          "name": "_marketId",
          "type": "uint256"
        }
      ],
      "name": "getMarket",
      "outputs": [
        {
          "internalType": "string",
          "name": "question",
          "type": "string"
        },
        {
          "internalType": "uint256",
          "name": "endTime",
          "type": "uint256"
        },
        {
          "internalType": "uint256",
          "name": "totalYesBets",
          "type": "uint256"
        },
        {
          "internalType": "uint256",
          "name": "totalNoBets",
          "type": "uint256"
        },
        {
          "internalType": "bool",
          "name": "resolved",
          "type": "bool"
        },
        {
          "internalType": "bool",
          "name": "outcome",
          "type": "bool"
        },
        {
          "internalType": "address",
          "name": "creator",
          "type": "address"
        }
      ],
      "stateMutability": "view",
      "type": "function"
    },
    {
      "inputs": [
        {
          "internalType": "uint256",
          "name": "_marketId",
          "type": "uint256"
        }
      ],
      "name": "getMarketBettors",
      "outputs": [
        {
          "internalType": "address[]",
          "name": "",
          "type": "address[]"
        }
      ],
      "stateMutability": "view",
      "type": "function"
    },
    {
      "inputs": [],
      "name": "getTotalMarkets",
      "outputs": [
        {
          "internalType": "uint256",
          "name": "",
          "type": "uint256"
        }
      ],
      "stateMutability": "view",
      "type": "function"
    },
    {
      "inputs": [
        {
          "internalType": "uint256",
          "name": "",
          "type": "uint256"
        },
        {
          "internalType": "uint256",
          "name": "",
          "type": "uint256"
        }
      ],
      "name": "marketBettors",
      "outputs": [
        {
          "internalType": "address",
          "name": "",
          "type": "address"
        }
      ],
      "stateMutability": "view",
      "type": "function"
    },
    {
      "inputs": [],
      "name": "marketCounter",
      "outputs": [
        {
          "internalType": "uint256",
          "name": "",
          "type": "uint256"
        }
      ],
      "stateMutability": "view",
      "type": "function"
    },
    {
      "inputs": [
        {
          "internalType": "uint256",
          "name": "",
          "type": "uint256"
        }
      ],
      "name": "markets",
      "outputs": [
        {
          "internalType": "string",
          "name": "question",
          "type": "string"
        },
        {
          "internalType": "uint256",
          "name": "endTime",
          "type": "uint256"
        },
        {
          "internalType": "uint256",
          "name": "totalYesBets",
          "type": "uint256"
        },
        {
          "internalType": "uint256",
          "name": "totalNoBets",
          "type": "uint256"
        },
        {
          "internalType": "bool",
          "name": "resolved",
          "type": "bool"
        },
        {
          "internalType": "bool",
          "name": "outcome",
          "type": "bool"
        },
        {
          "internalType": "address",
          "name": "creator",
          "type": "address"
        }
      ],
      "stateMutability": "view",
      "type": "function"
    },
    {
      "inputs": [
        {
          "internalType": "uint256",
          "name": "_marketId",
          "type": "uint256"
        },
        {
          "internalType": "bool",
          "name": "_prediction",
          "type": "bool"
        }
      ],
      "name": "placeBet",
      "outputs": [],
      "stateMutability": "payable",
      "type": "function"
    },
    {
      "inputs": [
        {
          "internalType": "uint256",
          "name": "_marketId",
          "type": "uint256"
        },
        {
          "internalType": "bool",
          "name": "_outcome",
          "type": "bool"
        }
      ],
      "name": "resolveMarket",
      "outputs": [],
      "stateMutability": "nonpayable",
      "type": "function"
    }
  ],
  "bytecode": "0x6080604052348015600e575f80fd5b50611b498061001c5f395ff3fe6080604052600436106100e4575f3560e01c806381ebf20911610087578063d960261d11610057578063d960261d1461024b578063e053bcec14610278578063eb44fdd3146102a4578063f644b3bb146102c3575f80fd5b806381ebf209146101d3578063883c84c1146101e75780639ed9c74d14610206578063b1283e7714610219575f80fd5b806357bde446116100c257806357bde446146101605780636540742f1461017f578063677bd9ff146101995780637e95b523146101b8575f80fd5b80630b501ab8146100e8578063247608071461011d5780635312ea8e1461013f575b5f80fd5b3480156100f3575f80fd5b506101076101023660046110ba565b610327565b6040516101149190611159565b60405180910390f35b348015610128575f80fd5b5061013260035481565b6040516101149190611170565b34801561014a575f80fd5b5061015e6101593660046110ba565b6103bd565b005b34801561016b575f80fd5b5061015e61017a366004611191565b6104c4565b34801561018a575f80fd5b5061013266038d7ea4c6800081565b3480156101a4575f80fd5b5061015e6101b33660046110ba565b6105f0565b3480156101c3575f80fd5b50610132678ac7230489e8000081565b3480156101de575f80fd5b50600354610132565b3480156101f2575f80fd5b506101326102013660046112af565b6107f9565b61015e610214366004611191565b610987565b348015610224575f80fd5b506102386102333660046110ba565b610c98565b604051610114979695949392919061133c565b348015610256575f80fd5b5061026a6102653660046110ba565b610d6a565b6040516101149291906113a9565b348015610283575f80fd5b506102976102923660046113c4565b610dc8565b60405161011491906113f1565b3480156102af575f80fd5b506102386102be3660046110ba565b610dfc565b3480156102ce575f80fd5b506103176102dd366004611413565b600160208181525f9384526040808520909152918352912080549181015460029091015460ff81169061010090046001600160a01b031684565b6040516101149493929190611450565b60608160035481106103545760405162461bcd60e51b815260040161034b906114c0565b60405180910390fd5b5f83815260026020908152604091829020805483518184028101840190945280845290918301828280156103af57602002820191905f5260205f20905b81546001600160a01b03168152600190910190602001808311610391575b505050505091505b50919050565b8060035481106103df5760405162461bcd60e51b815260040161034b906114c0565b5f8281526020819052604090206004015482906201000090046001600160a01b0316331461041f5760405162461bcd60e51b815260040161034b90611502565b5f8381526020819052604090206001015461043d9062278d00611526565b421161045b5760405162461bcd60e51b815260040161034b90611539565b5f8381526020819052604090206004015460ff1661048b5760405162461bcd60e51b815260040161034b906115b1565b4780156104be57604051339082156108fc029083905f818181858888f193505050501580156104bc573d5f803e3d5ffd5b505b50505050565b8160035481106104e65760405162461bcd60e51b815260040161034b906114c0565b5f8381526020819052604090206001015483904210156105185760405162461bcd60e51b815260040161034b906115f3565b5f8481526020819052604090206004015484906201000090046001600160a01b031633146105585760405162461bcd60e51b815260040161034b90611502565b5f8581526020819052604090206004015460ff16156105895760405162461bcd60e51b815260040161034b90611635565b5f858152602081905260409081902060040180548615156101000261ffff199091161760011790555185907f4927fe38919783250023d27e65a3e56b6b5c3e49364e51674a41ef08d62460d9906105e1908790611645565b60405180910390a25050505050565b8060035481106106125760405162461bcd60e51b815260040161034b906114c0565b5f8281526020819052604090206004015460ff166106425760405162461bcd60e51b815260040161034b90611685565b5f8281526001602090815260408083203380855292529091206002015461010090046001600160a01b03161461068a5760405162461bcd60e51b815260040161034b906116c7565b5f82815260016020908152604080832033845290915290206002015460ff16156106c65760405162461bcd60e51b815260040161034b90611709565b5f828152600160208181526040808420338552825280842086855291849052832060028201805460ff19169093179092556004820154909290610100900460ff1661071557816003015461071b565b81600201545b60048301549091505f90610100900460ff1661073b578260020154610741565b82600301545b90505f8211801561075157505f81115b156107f15766038d7ea4c680005f8361076a8484611719565b6107749190611744565b61077e9083611526565b604051909150339082156108fc029083905f818181858888f193505050501580156107ab573d5f803e3d5ffd5b50336001600160a01b0316887f5380cf6fe903b40c6d5a9e0dfbca2f3a423f0a21520b4d5947ed5169bdba946d836040516107e69190611170565b60405180910390a350505b505050505050565b5f8082116108195760405162461bcd60e51b815260040161034b90611789565b5f8351116108395760405162461bcd60e51b815260040161034b906117cb565b600380545f9182610849836117db565b9190505590506040518060e00160405280858152602001844261086c9190611526565b81525f6020808301829052604080840183905260608401839052608084018390523360a09094019390935284825281905220815181906108ac90826118c5565b5060208201516001820155604082015160028201556060820151600382015560808201516004909101805460a084015160c0909401516001600160a01b031662010000027fffffffffffffffffffff0000000000000000000000000000000000000000ffff9415156101000261ff00199415159490941661ffff19909216919091179290921792909216179055807f57d0d124b72f81ed1da0dc728fc33db342705974792928796f6577b8db5c3d53856109668642611526565b3360405161097693929190611981565b60405180910390a290505b92915050565b8160035481106109a95760405162461bcd60e51b815260040161034b906114c0565b5f83815260208190526040902060010154839042106109da5760405162461bcd60e51b815260040161034b906119e0565b5f8181526020819052604090206004015460ff1615610a0b5760405162461bcd60e51b815260040161034b90611635565b66038d7ea4c680003410158015610a2a5750678ac7230489e800003411155b610a465760405162461bcd60e51b815260040161034b90611a22565b5f84815260016020908152604080832033845290915290206002015461010090046001600160a01b031615610a8d5760405162461bcd60e51b815260040161034b90611a64565b5f610a9f66038d7ea4c6800034611744565b90505f610aab82610f11565b90505f610ab786610f23565b6040805160808101825284815260208082018481525f83850181815233606086018181528f8452600180875288852083865287528885209751885594518786015591516002968701805493516001600160a01b0316610100027fffffffffffffffffffffff0000000000000000000000000000000000000000ff921515929092167fffffffffffffffffffffff00000000000000000000000000000000000000000090941693909317179091558d8252848452948120805492830181558152919091200180547fffffffffffffffffffffffff000000000000000000000000000000000000000016909217909155909150610bc1678ac7230489e8000066038d7ea4c68000611526565b610bcb9190611744565b341115610bfd575f8781526020819052604081206002018054349290610bf2908490611526565b90915550610c239050565b5f8781526020819052604081206003018054349290610c1d908490611526565b90915550505b610c2c82610f3e565b50610c3681610f3e565b50610c418233610f4d565b50610c4c8133610f4d565b50336001600160a01b0316877f87b9df6fa7123c2e6044c3a3a37b4b0662c188d7a58ef86ee55067c46e4613ad34604051610c879190611170565b60405180910390a350505050505050565b5f60208190529081526040902080548190610cb290611807565b80601f0160208091040260200160405190810160405280929190818152602001828054610cde90611807565b8015610d295780601f10610d0057610100808354040283529160200191610d29565b820191905f5260205f20905b815481529060010190602001808311610d0c57829003601f168201915b505050506001830154600284015460038501546004909501549394919390925060ff808216916101008104909116906201000090046001600160a01b031687565b5f80826003548110610d8e5760405162461bcd60e51b815260040161034b906114c0565b5050505f908152600160209081526040808320338085529252909120600201546001600160a01b036101008204169091149160ff90911690565b6002602052815f5260405f208181548110610de1575f80fd5b5f918252602090912001546001600160a01b03169150829050565b60605f805f805f80876003548110610e265760405162461bcd60e51b815260040161034b906114c0565b5f89815260208190526040902060018101546002820154600383015460048401548454859493929160ff808216926101008304909116916201000090046001600160a01b0316908790610e7890611807565b80601f0160208091040260200160405190810160405280929190818152602001828054610ea490611807565b8015610eef5780601f10610ec657610100808354040283529160200191610eef565b820191905f5260205f20905b815481529060010190602001808311610ed257829003601f168201915b5050505050965098509850985098509850985098505050919395979092949650565b5f6109818263ffffffff166004610f5f565b5f61098182610f32575f610f35565b60015b60ff165f610f5f565b5f610f49823061101c565b5090565b5f610f58838361101c565b5090919050565b7f9e7b61f58c47dc699ac88507c4f5bb9f121c03808c5676a8078fe583e464970154604051639cd07acb60e01b81525f917f9e7b61f58c47dc699ac88507c4f5bb9f121c03808c5676a8078fe583e4649700916001600160a01b0390911690639cd07acb90610fd49087908790600401611ab5565b6020604051808303815f875af1158015610ff0573d5f803e3d5ffd5b505050506040513d601f19601f820116820180604052508101906110149190611adb565b949350505050565b7f9e7b61f58c47dc699ac88507c4f5bb9f121c03808c5676a8078fe583e46497008054604051635ca4b5b160e11b81526001600160a01b039091169063b9496b629061106e9086908690600401611af8565b5f604051808303815f87803b158015611085575f80fd5b505af1158015611097573d5f803e3d5ffd5b50505050505050565b805b81146110ac575f80fd5b50565b8035610981816110a0565b5f602082840312156110cd576110cd5f80fd5b6110d783836110af565b9392505050565b5f6001600160a01b038216610981565b6110f7816110de565b82525050565b61110782826110ee565b5060200190565b60200190565b5f61111d825190565b80845260209384019383015f5b8281101561114f57815161113e87826110fd565b96505060208201915060010161112a565b5093949350505050565b602080825281016110d78184611114565b806110f7565b60208101610981828461116a565b8015156110a2565b80356109818161117e565b5f80604083850312156111a5576111a55f80fd5b6111af84846110af565b91506111be8460208501611186565b90509250929050565b634e487b7160e01b5f52604160045260245ffd5b601f19601f830116810181811067ffffffffffffffff82111715611201576112016111c7565b6040525050565b5f61121260405190565b905061121e82826111db565b919050565b5f67ffffffffffffffff82111561123c5761123c6111c7565b601f19601f83011660200192915050565b82818337505f910152565b5f61126a61126584611223565b611208565b9050828152838383011115611280576112805f80fd5b6110d783602083018461124d565b5f82601f8301126112a0576112a05f80fd5b6110d783833560208501611258565b5f80604083850312156112c3576112c35f80fd5b823567ffffffffffffffff8111156112dc576112dc5f80fd5b6112e88582860161128e565b9250506111be84602085016110af565b8281835e505f910152565b5f61130c825190565b8084526020840193506113238185602086016112f8565b601f01601f19169290920192915050565b8015156110f7565b60e0808252810161134d818a611303565b905061135c602083018961116a565b611369604083018861116a565b611376606083018761116a565b6113836080830186611334565b61139060a0830185611334565b61139d60c08301846110ee565b98975050505050505050565b604081016113b78285611334565b6110d76020830184611334565b5f80604083850312156113d8576113d85f80fd5b6113e284846110af565b91506111be84602085016110af565b6020810161098182846110ee565b6110a2816110de565b8035610981816113ff565b5f8060408385031215611427576114275f80fd5b61143184846110af565b91506111be8460208501611408565b5f81610981565b6110f781611440565b6080810161145e8287611447565b61146b6020830186611447565b6114786040830185611334565b61148560608301846110ee565b95945050505050565b60158152602081017f4d61726b657420646f6573206e6f7420657869737400000000000000000000008152905061110e565b602080825281016109818161148e565b60188152602081017f4f6e6c792063726561746f722063616e207265736f6c766500000000000000008152905061110e565b60208082528101610981816114d0565b634e487b7160e01b5f52601160045260245ffd5b8082018082111561098157610981611512565b6020808252810161098181602281527f546f6f206561726c7920666f7220656d657267656e6379207769746864726177602082015261185b60f21b604082015260600190565b601d8152602081017f4d61726b6574206d757374206265207265736f6c7665642066697273740000008152905061110e565b602080825281016109818161157f565b60168152602081017f4d61726b6574206973207374696c6c20616374697665000000000000000000008152905061110e565b60208082528101610981816115c1565b60178152602081017f4d61726b657420616c7265616479207265736f6c7665640000000000000000008152905061110e565b6020808252810161098181611603565b602081016109818284611334565b60178152602081017f4d61726b6574206e6f74207265736f6c766564207965740000000000000000008152905061110e565b6020808252810161098181611653565b600c8152602081017f4e6f2062657420666f756e6400000000000000000000000000000000000000008152905061110e565b6020808252810161098181611695565b600f8152602081017f416c726561647920636c61696d656400000000000000000000000000000000008152905061110e565b60208082528101610981816116d7565b818102811582820484141761098157610981611512565b634e487b7160e01b5f52601260045260245ffd5b5f8261175257611752611730565b500490565b60198152602081017f4475726174696f6e206d75737420626520706f736974697665000000000000008152905061110e565b6020808252810161098181611757565b60188152602081017f5175657374696f6e2063616e6e6f7420626520656d70747900000000000000008152905061110e565b6020808252810161098181611799565b5f600182016117ec576117ec611512565b5060010190565b634e487b7160e01b5f52602260045260245ffd5b60028104600182168061181b57607f821691505b6020821081036103b7576103b76117f3565b5f6109816118388381565b90565b6118448361182d565b81545f1960089490940293841b1916921b91909117905550565b5f61186a81848461183b565b505050565b81811015611889576118815f8261185e565b60010161186f565b5050565b601f82111561186a575f818152602090206020601f850104810160208510156118b35750805b6104bc6020601f86010483018261186f565b815167ffffffffffffffff8111156118df576118df6111c7565b6118e98254611807565b6118f482828561188d565b506020601f821160018114611927575f83156119105750848201515b5f19600885021c19811660028502178555506104bc565b5f84815260208120601f198516915b828110156119565787850151825560209485019460019092019101611936565b508482101561197257838701515f19601f87166008021c191681555b50505050600202600101905550565b606080825281016119928186611303565b90506119a1602083018561116a565b61101460408301846110ee565b60108152602081017f4d61726b65742068617320656e646564000000000000000000000000000000008152905061110e565b60208082528101610981816119ae565b60128152602081017f496e76616c69642062657420616d6f756e7400000000000000000000000000008152905061110e565b60208082528101610981816119f0565b60128152602081017f416c726561647920706c616365642062657400000000000000000000000000008152905061110e565b6020808252810161098181611a32565b634e487b7160e01b5f52602160045260245ffd5b605481106110ac576110ac611a74565b8061121e81611a88565b5f61098182611a98565b6110f781611aa2565b60408101611ac3828561116a565b6110d76020830184611aac565b8051610981816110a0565b5f60208284031215611aee57611aee5f80fd5b6110d78383611ad0565b60408101611b06828561116a565b6110d760208301846110ee56fea2646970667358221220ea75a5ec122f2b35b643f57dd761aecc62aea42c33bf7550bf5adf0c2d49916b64736f6c63430008190033",
  "linkReferences": {},
  "deployedLinkReferences": {}
}